{"abi":[{"type":"constructor","inputs":[],"stateMutability":"nonpayable"},{"type":"function","name":"balances","inputs":[{"name":"","type":"address","internalType":"address"}],"outputs":[{"name":"","type":"uint256","internalType":"uint256"}],"stateMutability":"view"},{"type":"function","name":"burn","inputs":[{"name":"from","type":"address","internalType":"address"},{"name":"amount","type":"uint256","internalType":"uint256"}],"outputs":[],"stateMutability":"nonpayable"},{"type":"function","name":"mint","inputs":[{"name":"to","type":"address","internalType":"address"},{"name":"amount","type":"uint256","internalType":"uint256"}],"outputs":[],"stateMutability":"nonpayable"},{"type":"function","name":"owner","inputs":[],"outputs":[{"name":"","type":"address","internalType":"address"}],"stateMutability":"view"}],"bytecode":{"object":"0x6080604052348015600e575f5ffd5b505f80546001600160a01b031916331790556102f78061002d5f395ff3fe608060405234801561000f575f5ffd5b506004361061004a575f3560e01c806327e235e31461004e57806340c10f19146100805780638da5cb5b146100955780639dc29fac146100bf575b5f5ffd5b61006d61005c366004610239565b60016020525f908152604090205481565b6040519081526020015b60405180910390f35b61009361008e366004610259565b6100d2565b005b5f546100a7906001600160a01b031681565b6040516001600160a01b039091168152602001610077565b6100936100cd366004610259565b610150565b5f546001600160a01b031633146101205760405162461bcd60e51b815260206004820152600d60248201526c2737ba103a34329037bbb732b960991b60448201526064015b60405180910390fd5b6001600160a01b0382165f9081526001602052604081208054839290610147908490610295565b90915550505050565b5f546001600160a01b031633146101995760405162461bcd60e51b815260206004820152600d60248201526c2737ba103a34329037bbb732b960991b6044820152606401610117565b6001600160a01b0382165f908152600160205260409020548111156101f75760405162461bcd60e51b8152602060048201526014602482015273496e73756666696369656e742062616c616e636560601b6044820152606401610117565b6001600160a01b0382165f90815260016020526040812080548392906101479084906102ae565b80356001600160a01b0381168114610234575f5ffd5b919050565b5f60208284031215610249575f5ffd5b6102528261021e565b9392505050565b5f5f6040838503121561026a575f5ffd5b6102738361021e565b946020939093013593505050565b634e487b7160e01b5f52601160045260245ffd5b808201808211156102a8576102a8610281565b92915050565b818103818111156102a8576102a861028156fea264697066735822122070edc813423edc7c4a594c895e8629bc9f1a6afeba69bbb763b83cf52fe4f6bd64736f6c634300081c0033","linkReferences":{}},"methodIdentifiers":{"balances(address)":"27e235e3","burn(address,uint256)":"9dc29fac","mint(address,uint256)":"40c10f19","owner()":"8da5cb5b"},"id":0}